{
  "contractName": "Mylock",
  "abi": [
    {
      "inputs": [],
      "stateMutability": "nonpayable",
      "type": "constructor"
    },
    {
      "anonymous": false,
      "inputs": [
        {
          "indexed": true,
          "internalType": "address",
          "name": "from",
          "type": "address"
        },
        {
          "indexed": false,
          "internalType": "uint256",
          "name": "amount",
          "type": "uint256"
        }
      ],
      "name": "Withdrawl",
      "type": "event"
    },
    {
      "inputs": [
        {
          "internalType": "address",
          "name": "",
          "type": "address"
        }
      ],
      "name": "isauthorized",
      "outputs": [
        {
          "internalType": "bool",
          "name": "",
          "type": "bool"
        }
      ],
      "stateMutability": "view",
      "type": "function",
      "constant": true
    },
    {
      "inputs": [
        {
          "internalType": "uint256",
          "name": "",
          "type": "uint256"
        }
      ],
      "name": "pendingusers",
      "outputs": [
        {
          "internalType": "string",
          "name": "name",
          "type": "string"
        },
        {
          "internalType": "string",
          "name": "aadhar",
          "type": "string"
        },
        {
          "internalType": "address",
          "name": "account",
          "type": "address"
        },
        {
          "internalType": "bool",
          "name": "isapproved",
          "type": "bool"
        }
      ],
      "stateMutability": "view",
      "type": "function",
      "constant": true
    },
    {
      "inputs": [
        {
          "internalType": "uint256",
          "name": "requestid",
          "type": "uint256"
        }
      ],
      "name": "authorizeemployee",
      "outputs": [],
      "stateMutability": "nonpayable",
      "type": "function"
    },
    {
      "inputs": [
        {
          "internalType": "uint256",
          "name": "fuel",
          "type": "uint256"
        }
      ],
      "name": "getfuel",
      "outputs": [],
      "stateMutability": "nonpayable",
      "type": "function"
    },
    {
      "inputs": [
        {
          "internalType": "address",
          "name": "empadress",
          "type": "address"
        }
      ],
      "name": "deauthorizeemployee",
      "outputs": [],
      "stateMutability": "nonpayable",
      "type": "function"
    },
    {
      "inputs": [
        {
          "internalType": "address",
          "name": "newadress",
          "type": "address"
        }
      ],
      "name": "updateowner",
      "outputs": [],
      "stateMutability": "nonpayable",
      "type": "function"
    },
    {
      "inputs": [
        {
          "internalType": "string",
          "name": "name",
          "type": "string"
        },
        {
          "internalType": "string",
          "name": "aadhar",
          "type": "string"
        }
      ],
      "name": "getauthorized",
      "outputs": [],
      "stateMutability": "nonpayable",
      "type": "function"
    }
  ],
  "bytecode": "0x608060405234801561001057600080fd5b5033600260006101000a81548173ffffffffffffffffffffffffffffffffffffffff021916908373ffffffffffffffffffffffffffffffffffffffff160217905550610c7c806100616000396000f3fe608060405234801561001057600080fd5b506004361061007d5760003560e01c8063b34da10c1161005b578063b34da10c146100ea578063c1c617de14610106578063cd4391a514610122578063fe98a782146101555761007d565b80631cffab7e146100825780636cba4e89146100b25780638327edf3146100ce575b600080fd5b61009c600480360381019061009791906108e5565b610171565b6040516100a9919061092d565b60405180910390f35b6100cc60048036038101906100c7919061097e565b610191565b005b6100e860048036038101906100e391906108e5565b6102c7565b005b61010460048036038101906100ff9190610a10565b610365565b005b610120600480360381019061011b919061097e565b610501565b005b61013c6004803603810190610137919061097e565b6105a8565b60405161014c9493929190610b39565b60405180910390f35b61016f600480360381019061016a91906108e5565b610725565b005b60016020528060005260406000206000915054906101000a900460ff1681565b600260009054906101000a900473ffffffffffffffffffffffffffffffffffffffff1673ffffffffffffffffffffffffffffffffffffffff163373ffffffffffffffffffffffffffffffffffffffff16146101eb57600080fd5b600180600080848154811061020357610202610b8c565b5b906000526020600020906003020160020160009054906101000a900473ffffffffffffffffffffffffffffffffffffffff1673ffffffffffffffffffffffffffffffffffffffff1673ffffffffffffffffffffffffffffffffffffffff16815260200190815260200160002060006101000a81548160ff02191690831515021790555060016000828154811061029c5761029b610b8c565b5b906000526020600020906003020160020160146101000a81548160ff02191690831515021790555050565b600260009054906101000a900473ffffffffffffffffffffffffffffffffffffffff1673ffffffffffffffffffffffffffffffffffffffff163373ffffffffffffffffffffffffffffffffffffffff161461032157600080fd5b80600260006101000a81548173ffffffffffffffffffffffffffffffffffffffff021916908373ffffffffffffffffffffffffffffffffffffffff16021790555050565b6000604051806080016040528086868080601f016020809104026020016040519081016040528093929190818152602001838380828437600081840152601f19601f82011690508083019250505050505050815260200184848080601f016020809104026020016040519081016040528093929190818152602001838380828437600081840152601f19601f8201169050808301925050505050505081526020013373ffffffffffffffffffffffffffffffffffffffff168152602001600015158152509050600081908060018154018082558091505060019003906000526020600020906003020160009091909190915060008201518160000190805190602001906104739291906107da565b5060208201518160010190805190602001906104909291906107da565b5060408201518160020160006101000a81548173ffffffffffffffffffffffffffffffffffffffff021916908373ffffffffffffffffffffffffffffffffffffffff16021790555060608201518160020160146101000a81548160ff02191690831515021790555050505050505050565b600160003373ffffffffffffffffffffffffffffffffffffffff1673ffffffffffffffffffffffffffffffffffffffff16815260200190815260200160002060009054906101000a900460ff1661055757600080fd5b3373ffffffffffffffffffffffffffffffffffffffff167f65ac0d8bb8cbc0e989ebd02ddc5161d7c499f7c21792e43fcf170314fe6bcc3f8260405161059d9190610bca565b60405180910390a250565b600081815481106105b857600080fd5b90600052602060002090600302016000915090508060000180546105db90610c14565b80601f016020809104026020016040519081016040528092919081815260200182805461060790610c14565b80156106545780601f1061062957610100808354040283529160200191610654565b820191906000526020600020905b81548152906001019060200180831161063757829003601f168201915b50505050509080600101805461066990610c14565b80601f016020809104026020016040519081016040528092919081815260200182805461069590610c14565b80156106e25780601f106106b7576101008083540402835291602001916106e2565b820191906000526020600020905b8154815290600101906020018083116106c557829003601f168201915b5050505050908060020160009054906101000a900473ffffffffffffffffffffffffffffffffffffffff16908060020160149054906101000a900460ff16905084565b600260009054906101000a900473ffffffffffffffffffffffffffffffffffffffff1673ffffffffffffffffffffffffffffffffffffffff163373ffffffffffffffffffffffffffffffffffffffff161461077f57600080fd5b6000600160008373ffffffffffffffffffffffffffffffffffffffff1673ffffffffffffffffffffffffffffffffffffffff16815260200190815260200160002060006101000a81548160ff02191690831515021790555050565b8280546107e690610c14565b90600052602060002090601f016020900481019282610808576000855561084f565b82601f1061082157805160ff191683800117855561084f565b8280016001018555821561084f579182015b8281111561084e578251825591602001919060010190610833565b5b50905061085c9190610860565b5090565b5b80821115610879576000816000905550600101610861565b5090565b600080fd5b600080fd5b600073ffffffffffffffffffffffffffffffffffffffff82169050919050565b60006108b282610887565b9050919050565b6108c2816108a7565b81146108cd57600080fd5b50565b6000813590506108df816108b9565b92915050565b6000602082840312156108fb576108fa61087d565b5b6000610909848285016108d0565b91505092915050565b60008115159050919050565b61092781610912565b82525050565b6000602082019050610942600083018461091e565b92915050565b6000819050919050565b61095b81610948565b811461096657600080fd5b50565b60008135905061097881610952565b92915050565b6000602082840312156109945761099361087d565b5b60006109a284828501610969565b91505092915050565b600080fd5b600080fd5b600080fd5b60008083601f8401126109d0576109cf6109ab565b5b8235905067ffffffffffffffff8111156109ed576109ec6109b0565b5b602083019150836001820283011115610a0957610a086109b5565b5b9250929050565b60008060008060408587031215610a2a57610a2961087d565b5b600085013567ffffffffffffffff811115610a4857610a47610882565b5b610a54878288016109ba565b9450945050602085013567ffffffffffffffff811115610a7757610a76610882565b5b610a83878288016109ba565b925092505092959194509250565b600081519050919050565b600082825260208201905092915050565b60005b83811015610acb578082015181840152602081019050610ab0565b83811115610ada576000848401525b50505050565b6000601f19601f8301169050919050565b6000610afc82610a91565b610b068185610a9c565b9350610b16818560208601610aad565b610b1f81610ae0565b840191505092915050565b610b33816108a7565b82525050565b60006080820190508181036000830152610b538187610af1565b90508181036020830152610b678186610af1565b9050610b766040830185610b2a565b610b83606083018461091e565b95945050505050565b7f4e487b7100000000000000000000000000000000000000000000000000000000600052603260045260246000fd5b610bc481610948565b82525050565b6000602082019050610bdf6000830184610bbb565b92915050565b7f4e487b7100000000000000000000000000000000000000000000000000000000600052602260045260246000fd5b60006002820490506001821680610c2c57607f821691505b60208210811415610c4057610c3f610be5565b5b5091905056fea2646970667358221220f9b2fb62738418f06517d2b7b8dab761949077fdd7ffccb617988abc04a85a7764736f6c634300080b0033",
  "immutableReferences": {},
  "source": "//SPDX-License-Identifier: MIT\r\npragma solidity ^0.8.11;\r\n\r\ncontract Mylock{\r\n    event Withdrawl(address indexed from, uint256 amount);\r\n    struct users{\r\n        string name;\r\n        string aadhar;\r\n        address account;\r\n        bool isapproved;\r\n    }\r\n    users[]public pendingusers;\r\n\r\n    mapping(address=>bool) public isauthorized;\r\n    address owner;\r\n    constructor(){\r\n        owner=msg.sender;\r\n\r\n    }\r\n    \r\n    function authorizeemployee(uint256 requestid) public {\r\n        require(msg.sender==owner);\r\n        isauthorized[pendingusers[requestid].account]=true;\r\n        pendingusers[requestid].isapproved=true;\r\n    }\r\n\r\n    function getfuel(uint256 fuel) public{\r\n        require(isauthorized[msg.sender]);\r\n        emit Withdrawl(msg.sender,fuel);\r\n    }\r\n    function deauthorizeemployee(address empadress) public {\r\n        require(msg.sender==owner);\r\n        isauthorized[empadress]=false;\r\n    }\r\n    function updateowner(address newadress) public{\r\n        require(msg.sender==owner);\r\n        owner=newadress;\r\n    }\r\n    function getauthorized(string calldata name, string calldata aadhar) public {\r\n        users memory newuser=users(name,aadhar,msg.sender,false);\r\n        pendingusers.push(newuser);\r\n    }\r\n}\r\n",
  "sourcePath": "C:\\Users\\hp\\Desktop\\example-coin\\contracts\\Lock.sol",
  "compiler": {
    "name": "solc",
    "version": "0.8.11+commit.d7f03943.Emscripten.clang"
  },
  "schemaVersion": "3.4.4",
  "updatedAt": "2022-05-09T20:25:59.135Z",
  "networkType": "ethereum",
  "devdoc": {
    "kind": "dev",
    "methods": {},
    "version": 1
  },
  "userdoc": {
    "kind": "user",
    "methods": {},
    "version": 1
  }
}